{
  "contractName": "TokenERC721",
  "abi": [
    {
      "inputs": [],
      "stateMutability": "nonpayable",
      "type": "constructor"
    },
    {
      "anonymous": false,
      "inputs": [
        {
          "indexed": true,
          "internalType": "address",
          "name": "owner",
          "type": "address"
        },
        {
          "indexed": true,
          "internalType": "address",
          "name": "approved",
          "type": "address"
        },
        {
          "indexed": true,
          "internalType": "uint256",
          "name": "tokenId",
          "type": "uint256"
        }
      ],
      "name": "Approval",
      "type": "event"
    },
    {
      "anonymous": false,
      "inputs": [
        {
          "indexed": true,
          "internalType": "address",
          "name": "owner",
          "type": "address"
        },
        {
          "indexed": true,
          "internalType": "address",
          "name": "operator",
          "type": "address"
        },
        {
          "indexed": false,
          "internalType": "bool",
          "name": "approved",
          "type": "bool"
        }
      ],
      "name": "ApprovalForAll",
      "type": "event"
    },
    {
      "anonymous": false,
      "inputs": [
        {
          "indexed": true,
          "internalType": "address",
          "name": "account",
          "type": "address"
        },
        {
          "indexed": false,
          "internalType": "uint256",
          "name": "amount",
          "type": "uint256"
        }
      ],
      "name": "Deposit",
      "type": "event"
    },
    {
      "anonymous": false,
      "inputs": [
        {
          "indexed": true,
          "internalType": "uint256",
          "name": "tokenId",
          "type": "uint256"
        },
        {
          "indexed": true,
          "internalType": "address",
          "name": "mintedBy",
          "type": "address"
        },
        {
          "indexed": true,
          "internalType": "address",
          "name": "mintedTo",
          "type": "address"
        }
      ],
      "name": "Mint",
      "type": "event"
    },
    {
      "anonymous": false,
      "inputs": [],
      "name": "MintingDisabled",
      "type": "event"
    },
    {
      "anonymous": false,
      "inputs": [],
      "name": "MintingEnabled",
      "type": "event"
    },
    {
      "anonymous": false,
      "inputs": [
        {
          "indexed": true,
          "internalType": "address",
          "name": "from",
          "type": "address"
        },
        {
          "indexed": true,
          "internalType": "address",
          "name": "to",
          "type": "address"
        },
        {
          "indexed": true,
          "internalType": "uint256",
          "name": "tokenId",
          "type": "uint256"
        }
      ],
      "name": "Transfer",
      "type": "event"
    },
    {
      "anonymous": false,
      "inputs": [
        {
          "indexed": true,
          "internalType": "address",
          "name": "account",
          "type": "address"
        },
        {
          "indexed": false,
          "internalType": "uint256",
          "name": "amount",
          "type": "uint256"
        }
      ],
      "name": "Withdraw",
      "type": "event"
    },
    {
      "inputs": [],
      "name": "MINTING_LIMIT",
      "outputs": [
        {
          "internalType": "uint256",
          "name": "",
          "type": "uint256"
        }
      ],
      "stateMutability": "view",
      "type": "function",
      "constant": true
    },
    {
      "inputs": [],
      "name": "firstStage",
      "outputs": [
        {
          "internalType": "uint256",
          "name": "",
          "type": "uint256"
        }
      ],
      "stateMutability": "view",
      "type": "function",
      "constant": true
    },
    {
      "inputs": [],
      "name": "firstStageDenom",
      "outputs": [
        {
          "internalType": "uint256",
          "name": "",
          "type": "uint256"
        }
      ],
      "stateMutability": "view",
      "type": "function",
      "constant": true
    },
    {
      "inputs": [],
      "name": "firstStageHolders",
      "outputs": [
        {
          "internalType": "uint256",
          "name": "",
          "type": "uint256"
        }
      ],
      "stateMutability": "view",
      "type": "function",
      "constant": true
    },
    {
      "inputs": [],
      "name": "firstStageNom",
      "outputs": [
        {
          "internalType": "uint256",
          "name": "",
          "type": "uint256"
        }
      ],
      "stateMutability": "view",
      "type": "function",
      "constant": true
    },
    {
      "inputs": [],
      "name": "firstStagePool",
      "outputs": [
        {
          "internalType": "uint256",
          "name": "",
          "type": "uint256"
        }
      ],
      "stateMutability": "view",
      "type": "function",
      "constant": true
    },
    {
      "inputs": [],
      "name": "isMintingEnabled",
      "outputs": [
        {
          "internalType": "bool",
          "name": "",
          "type": "bool"
        }
      ],
      "stateMutability": "view",
      "type": "function",
      "constant": true
    },
    {
      "inputs": [],
      "name": "mintingPrice",
      "outputs": [
        {
          "internalType": "uint256",
          "name": "",
          "type": "uint256"
        }
      ],
      "stateMutability": "view",
      "type": "function",
      "constant": true
    },
    {
      "inputs": [],
      "name": "secondStage",
      "outputs": [
        {
          "internalType": "uint256",
          "name": "",
          "type": "uint256"
        }
      ],
      "stateMutability": "view",
      "type": "function",
      "constant": true
    },
    {
      "inputs": [],
      "name": "secondStageDenom",
      "outputs": [
        {
          "internalType": "uint256",
          "name": "",
          "type": "uint256"
        }
      ],
      "stateMutability": "view",
      "type": "function",
      "constant": true
    },
    {
      "inputs": [],
      "name": "secondStageHolders",
      "outputs": [
        {
          "internalType": "uint256",
          "name": "",
          "type": "uint256"
        }
      ],
      "stateMutability": "view",
      "type": "function",
      "constant": true
    },
    {
      "inputs": [],
      "name": "secondStageNom",
      "outputs": [
        {
          "internalType": "uint256",
          "name": "",
          "type": "uint256"
        }
      ],
      "stateMutability": "view",
      "type": "function",
      "constant": true
    },
    {
      "inputs": [],
      "name": "secondStagePool",
      "outputs": [
        {
          "internalType": "uint256",
          "name": "",
          "type": "uint256"
        }
      ],
      "stateMutability": "view",
      "type": "function",
      "constant": true
    },
    {
      "inputs": [],
      "name": "uri",
      "outputs": [
        {
          "internalType": "string",
          "name": "",
          "type": "string"
        }
      ],
      "stateMutability": "view",
      "type": "function",
      "constant": true
    },
    {
      "inputs": [],
      "name": "name",
      "outputs": [
        {
          "internalType": "string",
          "name": "",
          "type": "string"
        }
      ],
      "stateMutability": "view",
      "type": "function",
      "constant": true
    },
    {
      "inputs": [],
      "name": "symbol",
      "outputs": [
        {
          "internalType": "string",
          "name": "",
          "type": "string"
        }
      ],
      "stateMutability": "view",
      "type": "function",
      "constant": true
    },
    {
      "inputs": [
        {
          "internalType": "string",
          "name": "uri_",
          "type": "string"
        }
      ],
      "name": "setTokenURI",
      "outputs": [],
      "stateMutability": "nonpayable",
      "type": "function"
    },
    {
      "inputs": [
        {
          "internalType": "uint256",
          "name": "_tokenId",
          "type": "uint256"
        }
      ],
      "name": "tokenURI",
      "outputs": [
        {
          "internalType": "string",
          "name": "",
          "type": "string"
        }
      ],
      "stateMutability": "view",
      "type": "function",
      "constant": true
    },
    {
      "inputs": [],
      "name": "totalSupply",
      "outputs": [
        {
          "internalType": "uint256",
          "name": "",
          "type": "uint256"
        }
      ],
      "stateMutability": "view",
      "type": "function",
      "constant": true
    },
    {
      "inputs": [
        {
          "internalType": "uint256",
          "name": "_index",
          "type": "uint256"
        }
      ],
      "name": "tokenByIndex",
      "outputs": [
        {
          "internalType": "uint256",
          "name": "",
          "type": "uint256"
        }
      ],
      "stateMutability": "pure",
      "type": "function",
      "constant": true
    },
    {
      "inputs": [
        {
          "internalType": "address",
          "name": "_owner",
          "type": "address"
        },
        {
          "internalType": "uint256",
          "name": "_index",
          "type": "uint256"
        }
      ],
      "name": "tokenOfOwnerByIndex",
      "outputs": [
        {
          "internalType": "uint256",
          "name": "_tokenId",
          "type": "uint256"
        }
      ],
      "stateMutability": "view",
      "type": "function",
      "constant": true
    },
    {
      "inputs": [],
      "name": "getNotMintedAmount",
      "outputs": [
        {
          "internalType": "uint256",
          "name": "",
          "type": "uint256"
        }
      ],
      "stateMutability": "view",
      "type": "function",
      "constant": true
    },
    {
      "inputs": [
        {
          "internalType": "bytes4",
          "name": "_interfaceID",
          "type": "bytes4"
        }
      ],
      "name": "supportsInterface",
      "outputs": [
        {
          "internalType": "bool",
          "name": "",
          "type": "bool"
        }
      ],
      "stateMutability": "view",
      "type": "function",
      "constant": true
    },
    {
      "inputs": [
        {
          "internalType": "address",
          "name": "_owner",
          "type": "address"
        }
      ],
      "name": "balanceOf",
      "outputs": [
        {
          "internalType": "uint256",
          "name": "",
          "type": "uint256"
        }
      ],
      "stateMutability": "view",
      "type": "function",
      "constant": true
    },
    {
      "inputs": [
        {
          "internalType": "uint256",
          "name": "_tokenId",
          "type": "uint256"
        }
      ],
      "name": "ownerOf",
      "outputs": [
        {
          "internalType": "address",
          "name": "",
          "type": "address"
        }
      ],
      "stateMutability": "view",
      "type": "function",
      "constant": true
    },
    {
      "inputs": [
        {
          "internalType": "address",
          "name": "_from",
          "type": "address"
        },
        {
          "internalType": "address",
          "name": "_to",
          "type": "address"
        },
        {
          "internalType": "uint256",
          "name": "_tokenId",
          "type": "uint256"
        }
      ],
      "name": "safeTransferFrom",
      "outputs": [],
      "stateMutability": "payable",
      "type": "function",
      "payable": true
    },
    {
      "inputs": [
        {
          "internalType": "address",
          "name": "_from",
          "type": "address"
        },
        {
          "internalType": "address",
          "name": "_to",
          "type": "address"
        },
        {
          "internalType": "uint256",
          "name": "_tokenId",
          "type": "uint256"
        },
        {
          "internalType": "bytes",
          "name": "_data",
          "type": "bytes"
        }
      ],
      "name": "safeTransferFrom",
      "outputs": [],
      "stateMutability": "payable",
      "type": "function",
      "payable": true
    },
    {
      "inputs": [
        {
          "internalType": "address",
          "name": "_from",
          "type": "address"
        },
        {
          "internalType": "address",
          "name": "_to",
          "type": "address"
        },
        {
          "internalType": "uint256",
          "name": "_tokenId",
          "type": "uint256"
        }
      ],
      "name": "transferFrom",
      "outputs": [],
      "stateMutability": "payable",
      "type": "function",
      "payable": true
    },
    {
      "inputs": [
        {
          "internalType": "address",
          "name": "_approved",
          "type": "address"
        },
        {
          "internalType": "uint256",
          "name": "_tokenId",
          "type": "uint256"
        }
      ],
      "name": "approve",
      "outputs": [],
      "stateMutability": "payable",
      "type": "function",
      "payable": true
    },
    {
      "inputs": [
        {
          "internalType": "address",
          "name": "_operator",
          "type": "address"
        },
        {
          "internalType": "bool",
          "name": "_approved",
          "type": "bool"
        }
      ],
      "name": "setApprovalForAll",
      "outputs": [],
      "stateMutability": "nonpayable",
      "type": "function"
    },
    {
      "inputs": [
        {
          "internalType": "uint256",
          "name": "_tokenId",
          "type": "uint256"
        }
      ],
      "name": "getApproved",
      "outputs": [
        {
          "internalType": "address",
          "name": "",
          "type": "address"
        }
      ],
      "stateMutability": "view",
      "type": "function",
      "constant": true
    },
    {
      "inputs": [
        {
          "internalType": "address",
          "name": "_owner",
          "type": "address"
        },
        {
          "internalType": "address",
          "name": "_operator",
          "type": "address"
        }
      ],
      "name": "isApprovedForAll",
      "outputs": [
        {
          "internalType": "bool",
          "name": "",
          "type": "bool"
        }
      ],
      "stateMutability": "view",
      "type": "function",
      "constant": true
    },
    {
      "inputs": [
        {
          "internalType": "address",
          "name": "_user",
          "type": "address"
        }
      ],
      "name": "getUserTokens",
      "outputs": [
        {
          "internalType": "uint256[]",
          "name": "",
          "type": "uint256[]"
        }
      ],
      "stateMutability": "view",
      "type": "function",
      "constant": true
    },
    {
      "inputs": [
        {
          "internalType": "uint256",
          "name": "_tokenId",
          "type": "uint256"
        }
      ],
      "name": "getTokenIsFrozen",
      "outputs": [
        {
          "internalType": "bool",
          "name": "",
          "type": "bool"
        }
      ],
      "stateMutability": "view",
      "type": "function",
      "constant": true
    },
    {
      "inputs": [],
      "name": "mint",
      "outputs": [
        {
          "internalType": "uint256[20]",
          "name": "",
          "type": "uint256[20]"
        }
      ],
      "stateMutability": "payable",
      "type": "function",
      "payable": true
    },
    {
      "inputs": [],
      "name": "_enableMinting",
      "outputs": [],
      "stateMutability": "nonpayable",
      "type": "function"
    },
    {
      "inputs": [],
      "name": "_disableMinting",
      "outputs": [],
      "stateMutability": "nonpayable",
      "type": "function"
    },
    {
      "inputs": [
        {
          "internalType": "uint256",
          "name": "newPrice",
          "type": "uint256"
        }
      ],
      "name": "_setMintingPrice",
      "outputs": [],
      "stateMutability": "nonpayable",
      "type": "function"
    },
    {
      "inputs": [],
      "name": "withdraw",
      "outputs": [],
      "stateMutability": "nonpayable",
      "type": "function"
    },
    {
      "inputs": [
        {
          "internalType": "uint256",
          "name": "_tokenId",
          "type": "uint256"
        }
      ],
      "name": "FreezeToken",
      "outputs": [],
      "stateMutability": "nonpayable",
      "type": "function"
    },
    {
      "inputs": [
        {
          "internalType": "uint256",
          "name": "_tokenId",
          "type": "uint256"
        }
      ],
      "name": "UnFreezeToken",
      "outputs": [],
      "stateMutability": "nonpayable",
      "type": "function"
    },
    {
      "inputs": [
        {
          "internalType": "address",
          "name": "_contractOwner",
          "type": "address"
        }
      ],
      "name": "TransferOwnership",
      "outputs": [],
      "stateMutability": "nonpayable",
      "type": "function"
    }
  ],
  "bytecode": "0x60806040526040518060400160405280600e81526020017f546865436f6e74656e744b696e67000000000000000000000000000000000000815250600090805190602001906200005192919062000312565b506040518060400160405280600681526020017f54434b494e470000000000000000000000000000000000000000000000000000815250600190805190602001906200009f92919062000312565b506000600255600a6003556000600460006101000a81548160ff0219169083151502179055506000600555600161271c60006101000a81548160ff0219169083151502179055506040518060400160405280601e81526020017f68747470733a2f2f746573742e746573742f706174682f746f2f6170692f000081525061271d90805190602001906200013492919062000312565b50600061271e55600061271f55600061272055600061272155601e612722556096612723556003612724556064612725556007612726556064612727553480156200017e57600080fd5b50600161271660006301ffc9a760e01b7bffffffffffffffffffffffffffffffffffffffffffffffffffffffff1916815260200190815260200160002060006101000a81548160ff0219169083151502179055506001612716600063150b7a0260e01b7bffffffffffffffffffffffffffffffffffffffffffffffffffffffff1916815260200190815260200160002060006101000a81548160ff0219169083151502179055506001612716600063780e9d6360e01b7bffffffffffffffffffffffffffffffffffffffffffffffffffffffff1916815260200190815260200160002060006101000a81548160ff02191690831515021790555060016127166000635b5e139f60e01b7bffffffffffffffffffffffffffffffffffffffffffffffffffffffff1916815260200190815260200160002060006101000a81548160ff02191690831515021790555033600460016101000a81548173ffffffffffffffffffffffffffffffffffffffff021916908373ffffffffffffffffffffffffffffffffffffffff16021790555062000427565b8280546200032090620003c2565b90600052602060002090601f01602090048101928262000344576000855562000390565b82601f106200035f57805160ff191683800117855562000390565b8280016001018555821562000390579182015b828111156200038f57825182559160200191906001019062000372565b5b5090506200039f9190620003a3565b5090565b5b80821115620003be576000816000905550600101620003a4565b5090565b60006002820490506001821680620003db57607f821691505b60208210811415620003f257620003f1620003f8565b5b50919050565b7f4e487b7100000000000000000000000000000000000000000000000000000000600052602260045260246000fd5b614d8b80620004376000396000f3fe6080604052600436106102515760003560e01c80637d4df5a011610139578063c87b56dd116100b6578063e0df5b6f1161007a578063e0df5b6f1461088b578063e24ad903146108b4578063e985e9c5146108dd578063eac989f81461091a578063ec3f363614610945578063f28d50e81461097057610251565b8063c87b56dd14610794578063cfaaa266146107d1578063d3591dd0146107fa578063d71d9e9914610837578063ddd1e0551461086257610251565b8063b05bc5c4116100fd578063b05bc5c4146106e2578063b6e466271461070b578063b88d4fde14610736578063b9a7070f14610752578063ba1d0aac1461076957610251565b80637d4df5a01461060d57806395d89b4114610638578063a22cb46514610663578063a778e89f1461068c578063ae6fd71d146106b757610251565b806335db70b5116101d257806355c7ba141161019657806355c7ba14146104e75780636352211e146105125780636d11fd021461054f57806370a082311461057a57806373dd9073146105b75780637981935a146105e257610251565b806335db70b51461040f5780633ccfd60b1461043a57806342842e0e146104515780634f6ccce71461046d578063519dc8d2146104aa57610251565b8063136f5a9011610219578063136f5a901461033557806314c7763b1461036057806318160ddd1461038b57806323b872dd146103b65780632f745c59146103d257610251565b806301ffc9a71461025657806306fdde0314610293578063081812fc146102be578063095ea7b3146102fb5780631249c58b14610317575b600080fd5b34801561026257600080fd5b5061027d60048036038101906102789190614348565b610987565b60405161028a9190614774565b60405180910390f35b34801561029f57600080fd5b506102a86109f0565b6040516102b5919061478f565b60405180910390f35b3480156102ca57600080fd5b506102e560048036038101906102e091906143db565b610a82565b6040516102f291906146cf565b60405180910390f35b6103156004803603810190610310919061430c565b610b9f565b005b61031f610fda565b60405161032c9190614736565b60405180910390f35b34801561034157600080fd5b5061034a6112dd565b60405161035791906147b1565b60405180910390f35b34801561036c57600080fd5b506103756112e4565b60405161038291906147b1565b60405180910390f35b34801561039757600080fd5b506103a06112ea565b6040516103ad91906147b1565b60405180910390f35b6103d060048036038101906103cb9190614201565b6112f4565b005b3480156103de57600080fd5b506103f960048036038101906103f4919061430c565b611751565b60405161040691906147b1565b60405180910390f35b34801561041b57600080fd5b506104246118a6565b60405161043191906147b1565b60405180910390f35b34801561044657600080fd5b5061044f6118ac565b005b61046b60048036038101906104669190614201565b6119c4565b005b34801561047957600080fd5b50610494600480360381019061048f91906143db565b6119e4565b6040516104a191906147b1565b60405180910390f35b3480156104b657600080fd5b506104d160048036038101906104cc919061419c565b611a14565b6040516104de9190614752565b60405180910390f35b3480156104f357600080fd5b506104fc611a65565b6040516105099190614774565b60405180910390f35b34801561051e57600080fd5b50610539600480360381019061053491906143db565b611a79565b60405161054691906146cf565b60405180910390f35b34801561055b57600080fd5b50610564611ab7565b60405161057191906147b1565b60405180910390f35b34801561058657600080fd5b506105a1600480360381019061059c919061419c565b611abe565b6040516105ae91906147b1565b60405180910390f35b3480156105c357600080fd5b506105cc611b10565b6040516105d991906147b1565b60405180910390f35b3480156105ee57600080fd5b506105f7611b17565b60405161060491906147b1565b60405180910390f35b34801561061957600080fd5b50610622611b1e565b60405161062f91906147b1565b60405180910390f35b34801561064457600080fd5b5061064d611b35565b60405161065a919061478f565b60405180910390f35b34801561066f57600080fd5b5061068a600480360381019061068591906142d0565b611bc7565b005b34801561069857600080fd5b506106a1611cc5565b6040516106ae91906147b1565b60405180910390f35b3480156106c357600080fd5b506106cc611ccc565b6040516106d991906147b1565b60405180910390f35b3480156106ee57600080fd5b50610709600480360381019061070491906143db565b611cd3565b005b34801561071757600080fd5b50610720611e7b565b60405161072d91906147b1565b60405180910390f35b610750600480360381019061074b9190614250565b611e82565b005b34801561075e57600080fd5b50610767611ed9565b005b34801561077557600080fd5b5061077e612003565b60405161078b91906147b1565b60405180910390f35b3480156107a057600080fd5b506107bb60048036038101906107b691906143db565b61200a565b6040516107c8919061478f565b60405180910390f35b3480156107dd57600080fd5b506107f860048036038101906107f3919061419c565b61203f565b005b34801561080657600080fd5b50610821600480360381019061081c91906143db565b61214c565b60405161082e9190614774565b60405180910390f35b34801561084357600080fd5b5061084c612256565b60405161085991906147b1565b60405180910390f35b34801561086e57600080fd5b50610889600480360381019061088491906143db565b61225d565b005b34801561089757600080fd5b506108b260048036038101906108ad919061439a565b612356565b005b3480156108c057600080fd5b506108db60048036038101906108d691906143db565b61243a565b005b3480156108e957600080fd5b5061090460048036038101906108ff91906141c5565b612533565b6040516109119190614774565b60405180910390f35b34801561092657600080fd5b5061092f6125c8565b60405161093c919061478f565b60405180910390f35b34801561095157600080fd5b5061095a612657565b60405161096791906147b1565b60405180910390f35b34801561097c57600080fd5b5061098561265e565b005b60006127166000837bffffffffffffffffffffffffffffffffffffffffffffffffffffffff19167bffffffffffffffffffffffffffffffffffffffffffffffffffffffff1916815260200190815260200160002060009054906101000a900460ff169050919050565b6060600080546109ff90614afa565b80601f0160208091040260200160405190810160405280929190818152602001828054610a2b90614afa565b8015610a785780601f10610a4d57610100808354040283529160200191610a78565b820191906000526020600020905b815481529060010190602001808311610a5b57829003601f168201915b5050505050905090565b600081600073ffffffffffffffffffffffffffffffffffffffff16612717600083815260200190815260200160002060009054906101000a900473ffffffffffffffffffffffffffffffffffffffff1673ffffffffffffffffffffffffffffffffffffffff1614156040518060400160405280601081526020017f496e76616c696420746f6b656e2069640000000000000000000000000000000081525090610b61576040517f08c379a0000000000000000000000000000000000000000000000000000000008152600401610b58919061478f565b60405180910390fd5b50612719600084815260200190815260200160002060009054906101000a900473ffffffffffffffffffffffffffffffffffffffff16915050919050565b80600073ffffffffffffffffffffffffffffffffffffffff16612717600083815260200190815260200160002060009054906101000a900473ffffffffffffffffffffffffffffffffffffffff1673ffffffffffffffffffffffffffffffffffffffff1614156040518060400160405280601081526020017f496e76616c696420746f6b656e2069640000000000000000000000000000000081525090610c7c576040517f08c379a0000000000000000000000000000000000000000000000000000000008152600401610c73919061478f565b60405180910390fd5b50816001151561271a600083815260200190815260200160002060009054906101000a900460ff16151514156040518060400160405280601881526020017f5468697320746f6b656e2069732066726f7a656e206e6f77000000000000000081525090610d1f576040517f08c379a0000000000000000000000000000000000000000000000000000000008152600401610d16919061478f565b60405180910390fd5b50826000612717600083815260200190815260200160002060009054906101000a900473ffffffffffffffffffffffffffffffffffffffff1690503273ffffffffffffffffffffffffffffffffffffffff168173ffffffffffffffffffffffffffffffffffffffff161480610e5b57506001151561271b60008373ffffffffffffffffffffffffffffffffffffffff1673ffffffffffffffffffffffffffffffffffffffff16815260200190815260200160002060003373ffffffffffffffffffffffffffffffffffffffff1673ffffffffffffffffffffffffffffffffffffffff16815260200190815260200160002060009054906101000a900460ff161515148015610e5a5750600073ffffffffffffffffffffffffffffffffffffffff168173ffffffffffffffffffffffffffffffffffffffff1614155b5b604051806060016040528060228152602001614d0b6022913990610eb5576040517f08c379a0000000000000000000000000000000000000000000000000000000008152600401610eac919061478f565b60405180910390fd5b506000612717600087815260200190815260200160002060009054906101000a900473ffffffffffffffffffffffffffffffffffffffff1690508073ffffffffffffffffffffffffffffffffffffffff168773ffffffffffffffffffffffffffffffffffffffff1614610fd15786612719600088815260200190815260200160002060006101000a81548173ffffffffffffffffffffffffffffffffffffffff021916908373ffffffffffffffffffffffffffffffffffffffff160217905550858773ffffffffffffffffffffffffffffffffffffffff168273ffffffffffffffffffffffffffffffffffffffff167f8c5be1e5ebec7d5bd14f71427d1e84f3dd0314c0f7b2291e5b200ac8c7c3b92560405160405180910390a45b50505050505050565b610fe2613fbb565b600460009054906101000a900460ff161561108157600460009054906101000a900460ff16156040518060400160405280601481526020017f5265656e7472616e6379206973206c6f636b65640000000000000000000000008152509061107f576040517f08c379a0000000000000000000000000000000000000000000000000000000008152600401611076919061478f565b60405180910390fd5b505b6001600460006101000a81548160ff02191690831515021790555061271c60009054906101000a900460ff166040518060400160405280601081526020017f4d696e74696e672064697361626c65640000000000000000000000000000000081525090611124576040517f08c379a000000000000000000000000000000000000000000000000000000000815260040161111b919061478f565b60405180910390fd5b506003543410156040518060400160405280601e81526020017f496e73756666696369656e742066756e647320746f2070757263686173650000815250906111a2576040517f08c379a0000000000000000000000000000000000000000000000000000000008152600401611199919061478f565b60405180910390fd5b506111ab613fbb565b60006111e0601460ff166111db600354346111c69190614978565b6002546127106111d69190614a03565b612787565b612787565b90506000816003546111f291906149a9565b90508034111561124f573373ffffffffffffffffffffffffffffffffffffffff166108fc82346112229190614a03565b9081150290604051600060405180830381858888f1935050505015801561124d573d6000803e3d6000fd5b505b60005b828110156112b857611263336127a3565b84826014811061129c577f4e487b7100000000000000000000000000000000000000000000000000000000600052603260045260246000fd5b60200201818152505080806112b090614b2c565b915050611252565b508293505050506000600460006101000a81548160ff02191690831515021790555090565b61271e5481565b61271081565b6000600254905090565b80600073ffffffffffffffffffffffffffffffffffffffff16612717600083815260200190815260200160002060009054906101000a900473ffffffffffffffffffffffffffffffffffffffff1673ffffffffffffffffffffffffffffffffffffffff1614156040518060400160405280601081526020017f496e76616c696420746f6b656e20696400000000000000000000000000000000815250906113d1576040517f08c379a00000000000000000000000000000000000000000000000000000000081526004016113c8919061478f565b60405180910390fd5b50816001151561271a600083815260200190815260200160002060009054906101000a900460ff16151514156040518060400160405280601881526020017f5468697320746f6b656e2069732066726f7a656e206e6f77000000000000000081525090611474576040517f08c379a000000000000000000000000000000000000000000000000000000000815260040161146b919061478f565b60405180910390fd5b50826000612717600083815260200190815260200160002060009054906101000a900473ffffffffffffffffffffffffffffffffffffffff1690503373ffffffffffffffffffffffffffffffffffffffff168173ffffffffffffffffffffffffffffffffffffffff16148061154857503373ffffffffffffffffffffffffffffffffffffffff16612719600084815260200190815260200160002060009054906101000a900473ffffffffffffffffffffffffffffffffffffffff1673ffffffffffffffffffffffffffffffffffffffff16145b8061161a57506001151561271b60008373ffffffffffffffffffffffffffffffffffffffff1673ffffffffffffffffffffffffffffffffffffffff16815260200190815260200160002060003373ffffffffffffffffffffffffffffffffffffffff1673ffffffffffffffffffffffffffffffffffffffff16815260200190815260200160002060009054906101000a900460ff1615151480156116195750600073ffffffffffffffffffffffffffffffffffffffff168173ffffffffffffffffffffffffffffffffffffffff1614155b5b6040518060400160405280601e81526020017f5472616e73666572206e6f7420617070726f766564206279206f776e6572000081525090611691576040517f08c379a0000000000000000000000000000000000000000000000000000000008152600401611688919061478f565b60405180910390fd5b5085600073ffffffffffffffffffffffffffffffffffffffff168173ffffffffffffffffffffffffffffffffffffffff1614156040518060400160405280601681526020017f416464726573732063616e206e6f7420626520307830000000000000000000008152509061173b576040517f08c379a0000000000000000000000000000000000000000000000000000000008152600401611732919061478f565b60405180910390fd5b50611747888888612fa6565b5050505050505050565b600061179b61271860008573ffffffffffffffffffffffffffffffffffffffff1673ffffffffffffffffffffffffffffffffffffffff1681526020019081526020016000206130d8565b5182106040518060400160405280601981526020017f496e636f727265637420696e64657820666f722061727261790000000000000081525090611815576040517f08c379a000000000000000000000000000000000000000000000000000000000815260040161180c919061478f565b60405180910390fd5b5061185e61271860008573ffffffffffffffffffffffffffffffffffffffff1673ffffffffffffffffffffffffffffffffffffffff1681526020019081526020016000206130d8565b8281518110611896577f4e487b7100000000000000000000000000000000000000000000000000000000600052603260045260246000fd5b6020026020010151905092915050565b60035481565b600460019054906101000a900473ffffffffffffffffffffffffffffffffffffffff1673ffffffffffffffffffffffffffffffffffffffff163373ffffffffffffffffffffffffffffffffffffffff16146040518060400160405280600a81526020017f4f6e6c79206f776e65720000000000000000000000000000000000000000000081525090611974576040517f08c379a000000000000000000000000000000000000000000000000000000000815260040161196b919061478f565b60405180910390fd5b5060004790503373ffffffffffffffffffffffffffffffffffffffff166108fc829081150290604051600060405180830381858888f193505050501580156119c0573d6000803e3d6000fd5b5050565b6119df83838360405180602001604052806000815250613134565b505050565b60008082101580156119f7575061271082105b611a0057600080fd5b600182611a0d91906148eb565b9050919050565b6060611a5e61271860008473ffffffffffffffffffffffffffffffffffffffff1673ffffffffffffffffffffffffffffffffffffffff1681526020019081526020016000206130d8565b9050919050565b61271c60009054906101000a900460ff1681565b6000612717600083815260200190815260200160002060009054906101000a900473ffffffffffffffffffffffffffffffffffffffff169050919050565b6127245481565b6000611b0861271860008473ffffffffffffffffffffffffffffffffffffffff1673ffffffffffffffffffffffffffffffffffffffff1681526020019081526020016000206130d8565b519050919050565b6127235481565b6127255481565b6000600254612710611b309190614a03565b905090565b606060018054611b4490614afa565b80601f0160208091040260200160405190810160405280929190818152602001828054611b7090614afa565b8015611bbd5780601f10611b9257610100808354040283529160200191611bbd565b820191906000526020600020905b815481529060010190602001808311611ba057829003601f168201915b5050505050905090565b8061271b60003373ffffffffffffffffffffffffffffffffffffffff1673ffffffffffffffffffffffffffffffffffffffff16815260200190815260200160002060008473ffffffffffffffffffffffffffffffffffffffff1673ffffffffffffffffffffffffffffffffffffffff16815260200190815260200160002060006101000a81548160ff0219169083151502179055508173ffffffffffffffffffffffffffffffffffffffff163373ffffffffffffffffffffffffffffffffffffffff167f17307eab39ab6107e8899845ad3d59bd9653f200f220920489ca2b5937696c3183604051611cb99190614774565b60405180910390a35050565b6127275481565b6127205481565b600460019054906101000a900473ffffffffffffffffffffffffffffffffffffffff1673ffffffffffffffffffffffffffffffffffffffff163373ffffffffffffffffffffffffffffffffffffffff16146040518060400160405280600a81526020017f4f6e6c79206f776e65720000000000000000000000000000000000000000000081525090611d9b576040517f08c379a0000000000000000000000000000000000000000000000000000000008152600401611d92919061478f565b60405180910390fd5b50600460009054906101000a900460ff1615611e3b57600460009054906101000a900460ff16156040518060400160405280601481526020017f5265656e7472616e6379206973206c6f636b656400000000000000000000000081525090611e39576040517f08c379a0000000000000000000000000000000000000000000000000000000008152600401611e30919061478f565b60405180910390fd5b505b6001600460006101000a81548160ff021916908315150217905550806003819055506000600460006101000a81548160ff02191690831515021790555050565b6127215481565b611ed285858585858080601f016020809104026020016040519081016040528093929190818152602001838380828437600081840152601f19601f82011690508083019250505050505050613134565b5050505050565b600460019054906101000a900473ffffffffffffffffffffffffffffffffffffffff1673ffffffffffffffffffffffffffffffffffffffff163373ffffffffffffffffffffffffffffffffffffffff16146040518060400160405280600a81526020017f4f6e6c79206f776e65720000000000000000000000000000000000000000000081525090611fa1576040517f08c379a0000000000000000000000000000000000000000000000000000000008152600401611f98919061478f565b60405180910390fd5b5061271c60009054906101000a900460ff161561200157600061271c60006101000a81548160ff0219169083151502179055507faf79b4370f6af9d950564bbe6b81f7f0834c003c455db9248f4e55e6bf865eb760405160405180910390a15b565b6127265481565b606061271d61201883613688565b60405160200161202992919061465d565b6040516020818303038152906040529050919050565b600460019054906101000a900473ffffffffffffffffffffffffffffffffffffffff1673ffffffffffffffffffffffffffffffffffffffff163373ffffffffffffffffffffffffffffffffffffffff16146040518060400160405280600a81526020017f4f6e6c79206f776e65720000000000000000000000000000000000000000000081525090612107576040517f08c379a00000000000000000000000000000000000000000000000000000000081526004016120fe919061478f565b60405180910390fd5b5080600460016101000a81548173ffffffffffffffffffffffffffffffffffffffff021916908373ffffffffffffffffffffffffffffffffffffffff16021790555050565b600081600073ffffffffffffffffffffffffffffffffffffffff16612717600083815260200190815260200160002060009054906101000a900473ffffffffffffffffffffffffffffffffffffffff1673ffffffffffffffffffffffffffffffffffffffff1614156040518060400160405280601081526020017f496e76616c696420746f6b656e206964000000000000000000000000000000008152509061222b576040517f08c379a0000000000000000000000000000000000000000000000000000000008152600401612222919061478f565b60405180910390fd5b5061271a600084815260200190815260200160002060009054906101000a900460ff16915050919050565b61271f5481565b600460019054906101000a900473ffffffffffffffffffffffffffffffffffffffff1673ffffffffffffffffffffffffffffffffffffffff163373ffffffffffffffffffffffffffffffffffffffff16146040518060400160405280600a81526020017f4f6e6c79206f776e65720000000000000000000000000000000000000000000081525090612325576040517f08c379a000000000000000000000000000000000000000000000000000000000815260040161231c919061478f565b60405180910390fd5b50600061271a600083815260200190815260200160002060006101000a81548160ff02191690831515021790555050565b600460019054906101000a900473ffffffffffffffffffffffffffffffffffffffff1673ffffffffffffffffffffffffffffffffffffffff163373ffffffffffffffffffffffffffffffffffffffff16146040518060400160405280600a81526020017f4f6e6c79206f776e6572000000000000000000000000000000000000000000008152509061241e576040517f08c379a0000000000000000000000000000000000000000000000000000000008152600401612415919061478f565b60405180910390fd5b508061271d9080519060200190612436929190613fde565b5050565b600460019054906101000a900473ffffffffffffffffffffffffffffffffffffffff1673ffffffffffffffffffffffffffffffffffffffff163373ffffffffffffffffffffffffffffffffffffffff16146040518060400160405280600a81526020017f4f6e6c79206f776e65720000000000000000000000000000000000000000000081525090612502576040517f08c379a00000000000000000000000000000000000000000000000000000000081526004016124f9919061478f565b60405180910390fd5b50600161271a600083815260200190815260200160002060006101000a81548160ff02191690831515021790555050565b600061271b60008473ffffffffffffffffffffffffffffffffffffffff1673ffffffffffffffffffffffffffffffffffffffff16815260200190815260200160002060008373ffffffffffffffffffffffffffffffffffffffff1673ffffffffffffffffffffffffffffffffffffffff16815260200190815260200160002060009054906101000a900460ff16905092915050565b61271d80546125d690614afa565b80601f016020809104026020016040519081016040528092919081815260200182805461260290614afa565b801561264f5780601f106126245761010080835404028352916020019161264f565b820191906000526020600020905b81548152906001019060200180831161263257829003601f168201915b505050505081565b6127225481565b600460019054906101000a900473ffffffffffffffffffffffffffffffffffffffff1673ffffffffffffffffffffffffffffffffffffffff163373ffffffffffffffffffffffffffffffffffffffff16146040518060400160405280600a81526020017f4f6e6c79206f776e65720000000000000000000000000000000000000000000081525090612726576040517f08c379a000000000000000000000000000000000000000000000000000000000815260040161271d919061478f565b60405180910390fd5b5061271c60009054906101000a900460ff1661278557600161271c60006101000a81548160ff0219169083151502179055507f38cb976174a5c48b8f7b2f07f69b47c271ba7f019948915dc12efb770c2a542c60405160405180910390a15b565b6000818310156127995782905061279d565b8190505b92915050565b600081600073ffffffffffffffffffffffffffffffffffffffff168173ffffffffffffffffffffffffffffffffffffffff1614156040518060400160405280601681526020017f416464726573732063616e206e6f7420626520307830000000000000000000008152509061284e576040517f08c379a0000000000000000000000000000000000000000000000000000000008152600401612845919061478f565b60405180910390fd5b50612710600254106040518060400160405280601581526020017f416c6c20746f6b656e7320617265206d696e7465640000000000000000000000815250906128cd576040517f08c379a00000000000000000000000000000000000000000000000000000000081526004016128c4919061478f565b60405180910390fd5b5060006128d861385d565b9050600260008154809291906128ed90614b2c565b91905055506128fc8482613a9a565b600080612720541161290f576001612914565b612720545b9050600080612721541161292957600161292e565b612721545b905061272554826127245460035461294691906149a9565b6129509190614978565b61295a9190614978565b61271e600082825461296c91906148eb565b9250508190555061272754816127265460035461298991906149a9565b6129939190614978565b61299d9190614978565b61271f60008282546129af91906148eb565b9250508190555061272860008773ffffffffffffffffffffffffffffffffffffffff1673ffffffffffffffffffffffffffffffffffffffff16815260200190815260200160002060000160009054906101000a900460ff1615612e0957600161272860008873ffffffffffffffffffffffffffffffffffffffff1673ffffffffffffffffffffffffffffffffffffffff1681526020019081526020016000206001016000828254612a6091906148eb565b925050819055506127225461272860008873ffffffffffffffffffffffffffffffffffffffff1673ffffffffffffffffffffffffffffffffffffffff1681526020019081526020016000206001015410158015612b105750600161272860008873ffffffffffffffffffffffffffffffffffffffff1673ffffffffffffffffffffffffffffffffffffffff16815260200190815260200160002060020160009054906101000a900460ff1660ff16105b15612bdd57600161272860008873ffffffffffffffffffffffffffffffffffffffff1673ffffffffffffffffffffffffffffffffffffffff16815260200190815260200160002060020160006101000a81548160ff021916908360ff16021790555060016127206000828254612b8691906148eb565b9250508190555061271e5461272860008873ffffffffffffffffffffffffffffffffffffffff1673ffffffffffffffffffffffffffffffffffffffff16815260200190815260200160002060030181905550612e04565b6127235461272860008873ffffffffffffffffffffffffffffffffffffffff1673ffffffffffffffffffffffffffffffffffffffff1681526020019081526020016000206001015410158015612c865750600261272860008873ffffffffffffffffffffffffffffffffffffffff1673ffffffffffffffffffffffffffffffffffffffff16815260200190815260200160002060020160009054906101000a900460ff1660ff16105b15612e0357600261272860008873ffffffffffffffffffffffffffffffffffffffff1673ffffffffffffffffffffffffffffffffffffffff16815260200190815260200160002060020160006101000a81548160ff021916908360ff16021790555060016127216000828254612cfc91906148eb565b9250508190555060016127206000828254612d179190614a03565b9250508190555061272860008773ffffffffffffffffffffffffffffffffffffffff1673ffffffffffffffffffffffffffffffffffffffff1681526020019081526020016000206003015461271e54612d709190614a03565b61272860008873ffffffffffffffffffffffffffffffffffffffff1673ffffffffffffffffffffffffffffffffffffffff1681526020019081526020016000206004018190555061271f5461272860008873ffffffffffffffffffffffffffffffffffffffff1673ffffffffffffffffffffffffffffffffffffffff168152602001908152602001600020600301819055505b5b612ee3565b60006040518060a0016040528060011515815260200160018152602001600060ff16815260200160008152602001600081525090508061272860008973ffffffffffffffffffffffffffffffffffffffff1673ffffffffffffffffffffffffffffffffffffffff16815260200190815260200160002060008201518160000160006101000a81548160ff0219169083151502179055506020820151816001015560408201518160020160006101000a81548160ff021916908360ff1602179055506060820151816003015560808201518160040155905050505b8573ffffffffffffffffffffffffffffffffffffffff163373ffffffffffffffffffffffffffffffffffffffff16847f3794f7f7a2011a8e813b6d89dbacb3d42f6810b632e735dc2eab8628afdb77d960405160405180910390a4828673ffffffffffffffffffffffffffffffffffffffff16600073ffffffffffffffffffffffffffffffffffffffff167fddf252ad1be2c89b69c2b068fc378daa952ba7f163c4a11628f55a4df523b3ef60405160405180910390a482945050505050919050565b8273ffffffffffffffffffffffffffffffffffffffff16612717600083815260200190815260200160002060009054906101000a900473ffffffffffffffffffffffffffffffffffffffff1673ffffffffffffffffffffffffffffffffffffffff1614604051806060016040528060298152602001614d2d6029913990613063576040517f08c379a000000000000000000000000000000000000000000000000000000000815260040161305a919061478f565b60405180910390fd5b5061306e8382613bef565b6130788282613a9a565b808273ffffffffffffffffffffffffffffffffffffffff168473ffffffffffffffffffffffffffffffffffffffff167fddf252ad1be2c89b69c2b068fc378daa952ba7f163c4a11628f55a4df523b3ef60405160405180910390a4505050565b60608160000180548060200260200160405190810160405280929190818152602001828054801561312857602002820191906000526020600020905b815481526020019060010190808311613114575b50505050509050919050565b81600073ffffffffffffffffffffffffffffffffffffffff16612717600083815260200190815260200160002060009054906101000a900473ffffffffffffffffffffffffffffffffffffffff1673ffffffffffffffffffffffffffffffffffffffff1614156040518060400160405280601081526020017f496e76616c696420746f6b656e2069640000000000000000000000000000000081525090613211576040517f08c379a0000000000000000000000000000000000000000000000000000000008152600401613208919061478f565b60405180910390fd5b50826001151561271a600083815260200190815260200160002060009054906101000a900460ff16151514156040518060400160405280601881526020017f5468697320746f6b656e2069732066726f7a656e206e6f770000000000000000815250906132b4576040517f08c379a00000000000000000000000000000000000000000000000000000000081526004016132ab919061478f565b60405180910390fd5b50836000612717600083815260200190815260200160002060009054906101000a900473ffffffffffffffffffffffffffffffffffffffff1690503373ffffffffffffffffffffffffffffffffffffffff168173ffffffffffffffffffffffffffffffffffffffff16148061338857503373ffffffffffffffffffffffffffffffffffffffff16612719600084815260200190815260200160002060009054906101000a900473ffffffffffffffffffffffffffffffffffffffff1673ffffffffffffffffffffffffffffffffffffffff16145b8061345a57506001151561271b60008373ffffffffffffffffffffffffffffffffffffffff1673ffffffffffffffffffffffffffffffffffffffff16815260200190815260200160002060003373ffffffffffffffffffffffffffffffffffffffff1673ffffffffffffffffffffffffffffffffffffffff16815260200190815260200160002060009054906101000a900460ff1615151480156134595750600073ffffffffffffffffffffffffffffffffffffffff168173ffffffffffffffffffffffffffffffffffffffff1614155b5b6040518060400160405280601e81526020017f5472616e73666572206e6f7420617070726f766564206279206f776e65720000815250906134d1576040517f08c379a00000000000000000000000000000000000000000000000000000000081526004016134c8919061478f565b60405180910390fd5b5086600073ffffffffffffffffffffffffffffffffffffffff168173ffffffffffffffffffffffffffffffffffffffff1614156040518060400160405280601681526020017f416464726573732063616e206e6f7420626520307830000000000000000000008152509061357b576040517f08c379a0000000000000000000000000000000000000000000000000000000008152600401613572919061478f565b60405180910390fd5b50613587898989612fa6565b61359088613d8a565b1561367d5760008873ffffffffffffffffffffffffffffffffffffffff16635175f878338c8b8b6040518563ffffffff1660e01b81526004016135d694939291906146ea565b602060405180830381600087803b1580156135f057600080fd5b505af1158015613604573d6000803e3d6000fd5b505050506040513d601f19601f820116820180604052508101906136289190614371565b9050635175f87860e01b7bffffffffffffffffffffffffffffffffffffffffffffffffffffffff1916817bffffffffffffffffffffffffffffffffffffffffffffffffffffffff19161461367b57600080fd5b505b505050505050505050565b606060008214156136d0576040518060400160405280600181526020017f30000000000000000000000000000000000000000000000000000000000000008152509050613858565b600082905060005b600082146137025780806136eb90614b2c565b915050600a826136fb9190614978565b91506136d8565b60008167ffffffffffffffff811115613744577f4e487b7100000000000000000000000000000000000000000000000000000000600052604160045260246000fd5b6040519080825280601f01601f1916602001820160405280156137765781602001600182028036833780820191505090505b50905060008290505b60008614613850576001816137949190614a03565b90506000600a80886137a69190614978565b6137b091906149a9565b876137bb9190614a03565b60306137c79190614941565b905060008160f81b90508084848151811061380b577f4e487b7100000000000000000000000000000000000000000000000000000000600052603260045260246000fd5b60200101907effffffffffffffffffffffffffffffffffffffffffffffffffffffffffffff1916908160001a905350600a886138479190614978565b9750505061377f565b819450505050505b919050565b6000806002546127106138709190614a03565b905060008160055433444260405160200161388e9493929190614681565b6040516020818303038152906040528051906020012060001c6138b19190614ba3565b905060008060068361271081106138f1577f4e487b7100000000000000000000000000000000000000000000000000000000600052603260045260246000fd5b01541461393c576006826127108110613933577f4e487b7100000000000000000000000000000000000000000000000000000000600052603260045260246000fd5b01549050613940565b8190505b600060066001856139519190614a03565b6127108110613989577f4e487b7100000000000000000000000000000000000000000000000000000000600052603260045260246000fd5b015414156139e35760018361399e9190614a03565b60068361271081106139d9577f4e487b7100000000000000000000000000000000000000000000000000000000600052603260045260246000fd5b0181905550613a6d565b60066001846139f29190614a03565b6127108110613a2a577f4e487b7100000000000000000000000000000000000000000000000000000000600052603260045260246000fd5b01546006836127108110613a67577f4e487b7100000000000000000000000000000000000000000000000000000000600052603260045260246000fd5b01819055505b60056000815480929190613a8090614b2c565b9190505550600181613a9291906148eb565b935050505090565b81600073ffffffffffffffffffffffffffffffffffffffff168173ffffffffffffffffffffffffffffffffffffffff1614156040518060400160405280601681526020017f416464726573732063616e206e6f74206265203078300000000000000000000081525090613b43576040517f08c379a0000000000000000000000000000000000000000000000000000000008152600401613b3a919061478f565b60405180910390fd5b5082612717600084815260200190815260200160002060006101000a81548173ffffffffffffffffffffffffffffffffffffffff021916908373ffffffffffffffffffffffffffffffffffffffff160217905550613be98261271860008673ffffffffffffffffffffffffffffffffffffffff1673ffffffffffffffffffffffffffffffffffffffff168152602001908152602001600020613d9d90919063ffffffff16565b50505050565b8173ffffffffffffffffffffffffffffffffffffffff16612717600083815260200190815260200160002060009054906101000a900473ffffffffffffffffffffffffffffffffffffffff1673ffffffffffffffffffffffffffffffffffffffff1614613c5b57613d86565b600073ffffffffffffffffffffffffffffffffffffffff16612719600083815260200190815260200160002060009054906101000a900473ffffffffffffffffffffffffffffffffffffffff1673ffffffffffffffffffffffffffffffffffffffff1614613cfb57612719600082815260200190815260200160002060006101000a81549073ffffffffffffffffffffffffffffffffffffffff02191690555b612717600082815260200190815260200160002060006101000a81549073ffffffffffffffffffffffffffffffffffffffff0219169055613d848161271860008573ffffffffffffffffffffffffffffffffffffffff1673ffffffffffffffffffffffffffffffffffffffff168152602001908152602001600020613e0e90919063ffffffff16565b505b5050565b600080823b905060008111915050919050565b6000613da98383613f98565b15613db75760009050613e08565b82600001829080600181540180825580915050600190039060005260206000200160009091909190915055826000018054905083600101600084815260200190815260200160002081905550600190505b92915050565b60008083600101600084815260200190815260200160002054905060008114613f8c576000600182613e409190614a03565b9050600060018660000180549050613e589190614a03565b90506000866000018281548110613e98577f4e487b7100000000000000000000000000000000000000000000000000000000600052603260045260246000fd5b9060005260206000200154905080876000018481548110613ee2577f4e487b7100000000000000000000000000000000000000000000000000000000600052603260045260246000fd5b9060005260206000200181905550600183613efd91906148eb565b8760010160008381526020019081526020016000208190555086600001805480613f50577f4e487b7100000000000000000000000000000000000000000000000000000000600052603160045260246000fd5b60019003818190600052602060002001600090559055866001016000878152602001908152602001600020600090556001945050505050613f92565b60009150505b92915050565b600080836001016000848152602001908152602001600020541415905092915050565b604051806102800160405280601490602082028036833780820191505090505090565b828054613fea90614afa565b90600052602060002090601f01602090048101928261400c5760008555614053565b82601f1061402557805160ff1916838001178555614053565b82800160010185558215614053579182015b82811115614052578251825591602001919060010190614037565b5b5090506140609190614064565b5090565b5b8082111561407d576000816000905550600101614065565b5090565b600061409461408f846147fd565b6147cc565b9050828152602081018484840111156140ac57600080fd5b6140b7848285614ab8565b509392505050565b6000813590506140ce81614cae565b92915050565b6000813590506140e381614cc5565b92915050565b6000813590506140f881614cdc565b92915050565b60008151905061410d81614cdc565b92915050565b60008083601f84011261412557600080fd5b8235905067ffffffffffffffff81111561413e57600080fd5b60208301915083600182028301111561415657600080fd5b9250929050565b600082601f83011261416e57600080fd5b813561417e848260208601614081565b91505092915050565b60008135905061419681614cf3565b92915050565b6000602082840312156141ae57600080fd5b60006141bc848285016140bf565b91505092915050565b600080604083850312156141d857600080fd5b60006141e6858286016140bf565b92505060206141f7858286016140bf565b9150509250929050565b60008060006060848603121561421657600080fd5b6000614224868287016140bf565b9350506020614235868287016140bf565b925050604061424686828701614187565b9150509250925092565b60008060008060006080868803121561426857600080fd5b6000614276888289016140bf565b9550506020614287888289016140bf565b945050604061429888828901614187565b935050606086013567ffffffffffffffff8111156142b557600080fd5b6142c188828901614113565b92509250509295509295909350565b600080604083850312156142e357600080fd5b60006142f1858286016140bf565b9250506020614302858286016140d4565b9150509250929050565b6000806040838503121561431f57600080fd5b600061432d858286016140bf565b925050602061433e85828601614187565b9150509250929050565b60006020828403121561435a57600080fd5b6000614368848285016140e9565b91505092915050565b60006020828403121561438357600080fd5b6000614391848285016140fe565b91505092915050565b6000602082840312156143ac57600080fd5b600082013567ffffffffffffffff8111156143c657600080fd5b6143d28482850161415d565b91505092915050565b6000602082840312156143ed57600080fd5b60006143fb84828501614187565b91505092915050565b60006144108383614628565b60208301905092915050565b61442581614a37565b82525050565b61443c61443782614a37565b614b75565b82525050565b61444b8161485c565b61445581846148a2565b92506144608261482d565b8060005b838110156144915781516144788782614404565b965061448383614888565b925050600181019050614464565b505050505050565b60006144a482614867565b6144ae81856148ad565b93506144b983614837565b8060005b838110156144ea5781516144d18882614404565b97506144dc83614895565b9250506001810190506144bd565b5085935050505092915050565b61450081614a49565b82525050565b600061451182614872565b61451b81856148be565b935061452b818560208601614ac7565b61453481614c90565b840191505092915050565b600061454a8261487d565b61455481856148cf565b9350614564818560208601614ac7565b61456d81614c90565b840191505092915050565b60006145838261487d565b61458d81856148e0565b935061459d818560208601614ac7565b80840191505092915050565b600081546145b681614afa565b6145c081866148e0565b945060018216600081146145db57600181146145ec5761461f565b60ff1983168652818601935061461f565b6145f585614847565b60005b83811015614617578154818901526001820191506020810190506145f8565b838801955050505b50505092915050565b61463181614aa1565b82525050565b61464081614aa1565b82525050565b61465761465282614aa1565b614b99565b82525050565b600061466982856145a9565b91506146758284614578565b91508190509392505050565b600061468d8287614646565b60208201915061469d828661442b565b6014820191506146ad8285614646565b6020820191506146bd8284614646565b60208201915081905095945050505050565b60006020820190506146e4600083018461441c565b92915050565b60006080820190506146ff600083018761441c565b61470c602083018661441c565b6147196040830185614637565b818103606083015261472b8184614506565b905095945050505050565b60006102808201905061474c6000830184614442565b92915050565b6000602082019050818103600083015261476c8184614499565b905092915050565b600060208201905061478960008301846144f7565b92915050565b600060208201905081810360008301526147a9818461453f565b905092915050565b60006020820190506147c66000830184614637565b92915050565b6000604051905081810181811067ffffffffffffffff821117156147f3576147f2614c61565b5b8060405250919050565b600067ffffffffffffffff82111561481857614817614c61565b5b601f19601f8301169050602081019050919050565b6000819050919050565b6000819050602082019050919050565b60008190508160005260206000209050919050565b600060149050919050565b600081519050919050565b600081519050919050565b600081519050919050565b6000602082019050919050565b6000602082019050919050565b600081905092915050565b600082825260208201905092915050565b600082825260208201905092915050565b600082825260208201905092915050565b600081905092915050565b60006148f682614aa1565b915061490183614aa1565b9250827fffffffffffffffffffffffffffffffffffffffffffffffffffffffffffffffff0382111561493657614935614bd4565b5b828201905092915050565b600061494c82614aab565b915061495783614aab565b92508260ff0382111561496d5761496c614bd4565b5b828201905092915050565b600061498382614aa1565b915061498e83614aa1565b92508261499e5761499d614c03565b5b828204905092915050565b60006149b482614aa1565b91506149bf83614aa1565b9250817fffffffffffffffffffffffffffffffffffffffffffffffffffffffffffffffff04831182151516156149f8576149f7614bd4565b5b828202905092915050565b6000614a0e82614aa1565b9150614a1983614aa1565b925082821015614a2c57614a2b614bd4565b5b828203905092915050565b6000614a4282614a81565b9050919050565b60008115159050919050565b60007fffffffff0000000000000000000000000000000000000000000000000000000082169050919050565b600073ffffffffffffffffffffffffffffffffffffffff82169050919050565b6000819050919050565b600060ff82169050919050565b82818337600083830152505050565b60005b83811015614ae5578082015181840152602081019050614aca565b83811115614af4576000848401525b50505050565b60006002820490506001821680614b1257607f821691505b60208210811415614b2657614b25614c32565b5b50919050565b6000614b3782614aa1565b91507fffffffffffffffffffffffffffffffffffffffffffffffffffffffffffffffff821415614b6a57614b69614bd4565b5b600182019050919050565b6000614b8082614b87565b9050919050565b6000614b9282614ca1565b9050919050565b6000819050919050565b6000614bae82614aa1565b9150614bb983614aa1565b925082614bc957614bc8614c03565b5b828206905092915050565b7f4e487b7100000000000000000000000000000000000000000000000000000000600052601160045260246000fd5b7f4e487b7100000000000000000000000000000000000000000000000000000000600052601260045260246000fd5b7f4e487b7100000000000000000000000000000000000000000000000000000000600052602260045260246000fd5b7f4e487b7100000000000000000000000000000000000000000000000000000000600052604160045260246000fd5b6000601f19601f8301169050919050565b60008160601b9050919050565b614cb781614a37565b8114614cc257600080fd5b50565b614cce81614a49565b8114614cd957600080fd5b50565b614ce581614a55565b8114614cf057600080fd5b50565b614cfc81614aa1565b8114614d0757600080fd5b5056fe4f7065726174696f6e73207769746820746f6b656e206e6f7420617070726f766564546865202766726f6d27206164647265737320646f6573206e6f74206f776e2074686520746f6b656ea264697066735822122037a7f3adf43e9caaeb2e1535075cc74dc704bc6bc84515be0d025c0619f6c16064736f6c63430008000033",
  "immutableReferences": {},
  "source": "pragma solidity ^0.8.0;\n\n// SPDX-License-Identifier: MIT\n\nlibrary EnumerableSet {\n    struct UintSet {\n        uint256[] _values;\n        mapping (uint256 => uint256) _indexes;\n    }\n\n    function add(UintSet storage set, uint256 value) internal returns (bool) {\n        if (contains(set, value)) {\n            return false;\n        }\n\n        set._values.push(value);\n        set._indexes[value] = set._values.length;\n        return true;\n    }\n\n\n    function remove(UintSet storage set, uint256 value) internal returns (bool) {\n        uint256 valueIndex = set._indexes[value];\n\n        if (valueIndex != 0) { \n            uint256 toDeleteIndex = valueIndex - 1;\n            uint256 lastIndex = set._values.length - 1;\n\n            uint256 lastvalue = set._values[lastIndex];\n\n            set._values[toDeleteIndex] = lastvalue;\n            set._indexes[lastvalue] = toDeleteIndex + 1; // All indexes are 1-based\n            set._values.pop();\n            delete set._indexes[value];\n\n            return true;\n        } \n        else {\n            return false;\n        }\n    }\n\n    function contains(UintSet storage set, uint256 value) internal view returns (bool) {\n        return set._indexes[value] != 0;\n    }\n\n    function length(UintSet storage set) internal view returns (uint256) {\n        return set._values.length;\n    }\n\n    function at(UintSet storage set, uint256 index) internal view returns (uint256) {\n        require(set._values.length > index, \"EnumerableSet: index out of bounds\");\n        return set._values[index];\n    }\n\n    function values(UintSet storage set) internal view returns (uint256[] memory _vals) {\n        return set._values;\n    }\n}\n\nlibrary Errors {\n    string constant NOT_OWNER = 'Only owner';\n    string constant INVALID_TOKEN_ID = 'Invalid token id';\n    string constant MINTING_DISABLED = 'Minting disabled';\n    string constant TRANSFER_NOT_APPROVED = 'Transfer not approved by owner';\n    string constant OPERATION_NOT_APPROVED = 'Operations with token not approved';\n    string constant TOKEN_IS_FROZEN = 'This token is frozen now';\n    string constant ZERO_ADDRESS = 'Address can not be 0x0';\n    string constant ALL_MINTED = \"All tokens are minted\";\n    string constant NOT_ENOUGH_TOKENS = \"Insufficient funds to purchase\";\n    string constant WRONG_FROM = \"The 'from' address does not own the token\";\n    string constant REENTRANCY_LOCKED = 'Reentrancy is locked';\n    string constant RANDOM_FAIL = 'Random generation failed';\n    string constant NOTHING_ON_SALE = 'There are no tokens on sale';\n    string constant INDEX_INCORRECT = 'Incorrect index for array';\n    string constant MINTING_IS_NOT_FINISHED = 'Minting is not finished yet';\n    string constant CALLER_IS_NOT_MINTER = 'You cannot use functions for minter role';\n    string constant CALLER_IS_NOT_WITHDRAWAL = 'You cannot use functions for token claimer role';\n    string constant USER_IS_NOT_HOLDER = 'You are not holder';\n}\n\nlibrary Utils {\n    function uintToString(uint _i) internal pure returns (string memory _uintAsString) {\n        if (_i == 0) {\n            return \"0\";\n        }\n        uint j = _i;\n        uint len;\n        while (j != 0) {\n            len++;\n            j /= 10;\n        }\n        bytes memory bstr = new bytes(len);\n        uint k = len;\n        while (_i != 0) {\n            k = k-1;\n            uint8 temp = (48 + uint8(_i - _i / 10 * 10));\n            bytes1 b1 = bytes1(temp);\n            bstr[k] = b1;\n            _i /= 10;\n        }\n        return string(bstr);\n    }\n    \n    function min(uint256 a, uint256 b) internal pure returns(uint256) {\n        if (a < b) {\n            return a;\n        } else {\n            return b;\n        }\n    }\n}\n\n\ninterface ITRC165 {\n    /// @notice Query if a contract implements an interface\n    /// @param interfaceID The interface identifier, as specified in TRC-165\n    /// @dev Interface identification is specified in TRC-165. This function\n    ///  uses less than 30,000 energy.\n    /// @return `true` if the contract implements `interfaceID` and\n    ///  `interfaceID` is not 0xffffffff, `false` otherwise\n    function supportsInterface(bytes4 interfaceID) external view returns (bool);\n\n}\n\ninterface IERC721 {\n    function balanceOf(address _owner) external view returns (uint256);\n    function ownerOf(uint256 _tokenId) external view returns (address);\n\n    function safeTransferFrom(address _from, address _to, uint256 _tokenId, bytes calldata _data) external payable;\n    function safeTransferFrom(address _from, address _to, uint256 _tokenId) external payable;\n    function transferFrom(address _from, address _to, uint256 _tokenId) external payable;\n\n    function approve(address _approved, uint256 _tokenId) external payable;\n    function getApproved(uint256 _tokenId) external view returns (address);\n    function setApprovalForAll(address _operator, bool _approved) external;\n    function isApprovedForAll(address _owner, address _operator) external view returns (bool);\n\n\n    event Transfer(address indexed from, address indexed to, uint256 indexed tokenId);\n    event Approval(address indexed owner, address indexed approved, uint256 indexed tokenId);\n    event ApprovalForAll(address indexed owner, address indexed operator, bool approved);\n}\n\n/**\n * Interface for verifying ownership during Community Grant.\n */\ninterface IERC721TokenReceiver {\n    function onTRC721Received(address _operator, address _from, uint256 _tokenId, bytes calldata _data) external returns(bytes4);\n}\n\ninterface IERC721Metadata {\n    function name() external view returns (string memory _name);\n\n    function symbol() external view returns (string memory _symbol);\n\n    //Returns the URI of the external file corresponding to _tokenId. External resource files need to include names, descriptions and pictures. \n    function tokenURI(uint256 _tokenId) external view returns (string memory);\n}\n\n\ninterface IERC721Enumerable {\n    //Return the total supply of NFT\n    function totalSupply() external view returns (uint256);\n\n    //Return the corresponding tokenId through _index\n    function tokenByIndex(uint256 _index) external view returns (uint256);\n\n     //Return the tokenId corresponding to the index in the NFT list owned by the _owner'\n    function tokenOfOwnerByIndex(address _owner, uint256 _index) external view returns (uint256);\n}\n\n\ncontract TokenERC721 is IERC721, ITRC165, IERC721Metadata, IERC721Enumerable {\n    using EnumerableSet for EnumerableSet.UintSet;\n\n    string internal _name = \"TheContentKing\";\n    string internal _symbol = \"TCKING\";\n\n    uint256 internal totalMinted = 0;\n\n    uint256 public constant MINTING_LIMIT = 10000;\n\n    uint256 public mintingPrice = 10;\n\n    //Service:\n    bool internal isReentrancyLock = false;\n    address internal contractOwner;\n\n    uint8 constant MAXIMUM_MINT_LIMIT = 20;\n\n    // Equals to `bytes4(keccak256(\"onERC721Received(address,address,uint256,bytes)\"))`\n    // which can be also obtained as `IERC721Receiver(0).onTRC721Received.selector`\n    bytes4 internal constant MAGIC_ON_ERC721_RECEIVED = 0x5175f878;\n\n    // Random\n    uint256 internal nonce = 0;\n    uint256[MINTING_LIMIT] internal indices;\n\n    // Supported interfaces\n    mapping(bytes4 => bool) internal supportedInterfaces;\n\n    // storage\n    mapping (uint256 => address) internal tokenToOwner;\n    mapping (address => EnumerableSet.UintSet) internal ownerToTokensSet;\n    mapping (uint256 => address) internal tokenToApproval;\n    mapping (uint256 => bool) internal tokenIsFrozen;\n\n    mapping (address => mapping (address => bool)) internal ownerToOperators;\n\n    bool public isMintingEnabled = true;\n    \n    string public uri = 'https://test.test/path/to/api/';\n\n    /*************************************************************************** */\n\n    uint256 public firstStagePool = 0;\n    uint256 public secondStagePool = 0;\n\n    uint256 public firstStageHolders = 0;\n    uint256 public secondStageHolders = 0;\n\n    uint256 public firstStage = 30;\n    uint256 public secondStage = 150;\n\n    uint256 public firstStageNom = 3;\n    uint256 public firstStageDenom = 100;\n\n    uint256 public secondStageNom = 7;\n    uint256 public secondStageDenom = 100;\n\n    struct UserStructure {\n        bool exists;\n        uint256 mintAmount;\n        uint8 level;\n\n        uint256 lastKnownReward;\n        uint256 firstStageReward;\n    }\n\n    mapping(address => UserStructure) users;\n\n    /*************************************************************************** */\n    //                             Roles\n\n \n    /*************************************************************************** */\n    constructor() {\n        supportedInterfaces[0x01ffc9a7] = true; // ERC165\n        supportedInterfaces[0x150b7a02] = true; // ERC721\n        supportedInterfaces[0x780e9d63] = true; // ERC721 Enumerable\n        supportedInterfaces[0x5b5e139f] = true; // ERC721 Metadata\n\n        contractOwner = msg.sender;\n    }\n\n    /*************************************************************************** */\n\n\n\n\n    /*************************************************************************** */\n    //                             IERC721Metadata: \n\n    function name() external view override returns (string memory) {\n        return _name;\n    }\n\n    function symbol() external view override returns (string memory) {\n        return _symbol;\n    }\n\n    function setTokenURI(string memory uri_) external onlyContractOwner {\n        uri = uri_;\n    }\n\n    function tokenURI(uint256 _tokenId) external view override returns (string memory) {\n        return string(abi.encodePacked(uri, Utils.uintToString(_tokenId)));\n    }\n\n    /*************************************************************************** */\n\n\n\n\n    /*************************************************************************** */\n    //                             Enumerable: \n\n    function totalSupply() public view override returns(uint256) {\n        return totalMinted;\n    }\n\n    function tokenByIndex(uint256 _index) external pure override returns (uint256) {\n        require(_index >= 0 && _index < MINTING_LIMIT);\n        return _index + 1;\n    }\n\n    function tokenOfOwnerByIndex(address _owner, uint256 _index) external view override returns (uint256 _tokenId) {\n        require(_index < ownerToTokensSet[_owner].values().length, Errors.INDEX_INCORRECT);\n        return ownerToTokensSet[_owner].values()[_index];\n    }\n\n    function getNotMintedAmount() external view returns(uint256) {\n        return MINTING_LIMIT - totalMinted;\n    }\n\n    /*************************************************************************** */\n\n\n\n\n    /*************************************************************************** */\n    //                             IERC165: \n    function supportsInterface(bytes4 _interfaceID) external view override returns (bool) {\n        return supportedInterfaces[_interfaceID];\n    }\n\n    /*************************************************************************** */\n\n\n\n\n    /*************************************************************************** */\n    //                             ERC-721: \n\n    function balanceOf(address _owner) external view override returns (uint256) {\n        return ownerToTokensSet[_owner].values().length;\n    }\n\n    function ownerOf(uint256 _tokenId) external view override returns (address) {\n        return tokenToOwner[_tokenId];\n    }\n\n    function safeTransferFrom(address _from, address _to, uint256 _tokenId, bytes calldata _data) \n        external override payable \n    {\n        _safeTransferFrom(_from, _to, _tokenId, _data);\n    }\n\n    function safeTransferFrom(address _from, address _to, uint256 _tokenId) \n        external payable override\n    {\n        _safeTransferFrom(_from, _to, _tokenId, \"\");\n    }\n\n    function transferFrom(address _from, address _to, uint256 _tokenId) external payable override\n        validTokenId(_tokenId) \n        notFrozen(_tokenId)\n        transferApproved(_tokenId)\n        notZeroAddress(_to)\n    {\n        _transfer(_from, _to, _tokenId);\n    }\n\n    function approve(address _approved, uint256 _tokenId) external override payable\n        validTokenId(_tokenId)\n        notFrozen(_tokenId)\n        canOperate(_tokenId)\n    {\n        address tokenOwner = tokenToOwner[_tokenId];\n        if (_approved != tokenOwner) {\n            tokenToApproval[_tokenId] = _approved;\n            emit Approval(tokenOwner, _approved, _tokenId);\n        }\n    }\n\n    function setApprovalForAll(address _operator, bool _approved) external override {\n        ownerToOperators[msg.sender][_operator] = _approved;\n        emit ApprovalForAll(msg.sender, _operator, _approved);\n    }\n\n    function getApproved(uint256 _tokenId) external view override validTokenId(_tokenId)\n        returns (address) \n    {\n        return tokenToApproval[_tokenId];\n    }\n\n    function isApprovedForAll(address _owner, address _operator) external view override returns (bool) {\n        return ownerToOperators[_owner][_operator];\n    }\n\n    /*************************************************************************** */\n\n\n    /*************************************************************************** */\n    //                             \n\n    function getUserTokens(address _user) external view returns (uint256[] memory) {\n        return ownerToTokensSet[_user].values();\n    }\n\n    function getTokenIsFrozen(uint256 _tokenId) external view validTokenId(_tokenId) returns (bool) {\n        return tokenIsFrozen[_tokenId];\n    }\n\n    /*************************************************************************** */\n\n\n\n\n    /*************************************************************************** */\n    //                             Mint:\n    function mint() external payable reentrancyGuard mintingEnabled returns (uint256[MAXIMUM_MINT_LIMIT] memory) {\n        require(msg.value >= mintingPrice, Errors.NOT_ENOUGH_TOKENS);\n        uint256[MAXIMUM_MINT_LIMIT] memory mintedIndexes;\n        uint256 amountOfitemsToMint = Utils.min(MAXIMUM_MINT_LIMIT, Utils.min(msg.value/mintingPrice, (MINTING_LIMIT - totalMinted)));\n        uint256 totalMintPrice = mintingPrice * amountOfitemsToMint;\n        \n        if (msg.value > totalMintPrice) {\n            payable(msg.sender).transfer(msg.value - totalMintPrice);\n        }\n\n        for (uint itemsIndex = 0; itemsIndex < amountOfitemsToMint; itemsIndex++) {\n            mintedIndexes[itemsIndex] = _mint(msg.sender);\n        }\n        \n        return mintedIndexes;\n    }\n\n\n    /*************************************************************************** */\n\n\n\n\n    /*************************************************************************** */\n    //                             Internal functions:\n\n    function _mint(address _to) internal notZeroAddress(_to) returns (uint256 _mintedTokenId) {\n        require(totalMinted < MINTING_LIMIT, Errors.ALL_MINTED);\n        uint randomId = _generateRandomId();\n        totalMinted++;\n        \n        _addToken(_to, randomId);\n\n        uint256 fsh = (firstStageHolders > 0) ? firstStageHolders : 1;\n        uint256 ssh = (secondStageHolders > 0) ? secondStageHolders : 1;\n        firstStagePool += mintingPrice * firstStageNom / fsh / firstStageDenom;\n        secondStagePool += mintingPrice * secondStageNom / ssh / secondStageDenom;\n\n        if (users[_to].exists) {\n            users[_to].mintAmount += 1;\n            \n            if (users[_to].mintAmount >= firstStage && users[_to].level < 1) {\n                users[_to].level = 1;\n                firstStageHolders += 1;\n                users[_to].lastKnownReward = firstStagePool;\n            } else if (users[_to].mintAmount >= secondStage && users[_to].level < 2) {\n                users[_to].level = 2;\n                secondStageHolders += 1;\n                firstStageHolders -= 1;\n                users[_to].firstStageReward = firstStagePool - users[_to].lastKnownReward;\n                users[_to].lastKnownReward = secondStagePool;\n            }\n\n        } else {\n            UserStructure memory us = UserStructure({\n                exists: true,\n                mintAmount: 1,\n                level: 0,\n                lastKnownReward: 0,\n                firstStageReward: 0\n            });\n            \n            users[_to] = us;\n        }\n\n        emit Mint(randomId, msg.sender, _to);\n        emit Transfer(address(0), _to, randomId);\n\n        return randomId;\n    }\n    \n\n    function _addToken(address _to, uint256 _tokenId) private notZeroAddress(_to) {\n        tokenToOwner[_tokenId] = _to;\n        ownerToTokensSet[_to].add(_tokenId);\n    }\n    \n\n    function _removeToken(address _from, uint256 _tokenId) private {\n        if (tokenToOwner[_tokenId] != _from)\n            return;\n        \n        if (tokenToApproval[_tokenId] != address(0))\n            delete tokenToApproval[_tokenId];\n        \n        delete tokenToOwner[_tokenId];\n        ownerToTokensSet[_from].remove(_tokenId);\n    }\n\n\n    function _transfer(address _from, address _to, uint256 _tokenId) private {\n        require(tokenToOwner[_tokenId] == _from, Errors.WRONG_FROM);\n        _removeToken(_from, _tokenId);\n        _addToken(_to, _tokenId);\n\n        emit Transfer(_from, _to, _tokenId);\n    }\n\n    function _safeTransferFrom(address _from,  address _to,  uint256 _tokenId,  bytes memory _data) private \n        validTokenId(_tokenId) \n        notFrozen(_tokenId)\n        transferApproved(_tokenId) \n        notZeroAddress(_to)\n    {\n        _transfer(_from, _to, _tokenId);\n\n        if (isContract(_to)) {\n            bytes4 retval = IERC721TokenReceiver(_to).onTRC721Received(msg.sender, _from, _tokenId, _data);\n            require(retval == MAGIC_ON_ERC721_RECEIVED);\n        }\n    }\n\n\n    /*************************************************************************** */\n    //                             Admin functions: \n\n    function _enableMinting() external onlyContractOwner {\n        if (!isMintingEnabled) {\n            isMintingEnabled = true;\n            emit MintingEnabled();\n        }\n    }\n\n    function _disableMinting() external onlyContractOwner {\n        if (isMintingEnabled) {\n            isMintingEnabled = false;\n            emit MintingDisabled();\n        }\n    }\n\n    function _setMintingPrice(uint256 newPrice) external onlyContractOwner reentrancyGuard {\n        mintingPrice = newPrice;\n    }\n\n    function withdraw() external onlyContractOwner {\n        uint balance = address(this).balance;\n        payable(msg.sender).transfer(balance);\n    }\n\n    function FreezeToken(uint256 _tokenId) external onlyContractOwner {\n        tokenIsFrozen[_tokenId] = true;\n    }\n\n    function UnFreezeToken(uint256 _tokenId) external onlyContractOwner {\n        tokenIsFrozen[_tokenId] = false;\n    }\n\n\n    function TransferOwnership(address _contractOwner) external onlyContractOwner {\n        contractOwner = _contractOwner;\n    }\n\n\n    /*************************************************************************** */\n\n\n    /*************************************************************************** */\n    //                             Service:\n    function isContract(address _addr) internal view returns (bool addressCheck) {\n        uint256 size;\n        assembly { size := extcodesize(_addr) } // solhint-disable-line\n        addressCheck = size > 0;\n    }\n\n\n    function _generateRandomId() private returns (uint256) {\n        uint256 totalSize = MINTING_LIMIT - totalMinted;\n        uint256 index = uint256(keccak256(abi.encodePacked(nonce, msg.sender, block.difficulty, block.timestamp))) % totalSize;\n        uint256 value = 0;\n\n        if (indices[index] != 0) {\n            value = indices[index];\n        } else {\n            value = index;\n        }\n\n        // Move last value to selected position\n        if (indices[totalSize - 1] == 0) {\n            indices[index] = totalSize - 1;    // Array position not initialized, so use position\n        } else { \n            indices[index] = indices[totalSize - 1];   // Array position holds a value so use that\n        }\n        nonce++;\n        // Don't allow a zero index, start counting at 1\n        return value + 1;\n    }\n\n    /*************************************************************************** */\n\n\n\n\n    /*************************************************************************** */\n    //                             Modifiers: \n\n    modifier onlyContractOwner() {\n        require(msg.sender == contractOwner, Errors.NOT_OWNER);\n        _;\n    }\n\n    modifier reentrancyGuard {\n        if (isReentrancyLock) {\n            require(!isReentrancyLock, Errors.REENTRANCY_LOCKED);\n        }\n        isReentrancyLock = true;\n        _;\n        isReentrancyLock = false;\n    }\n\n    modifier validTokenId(uint256 _tokenId) {\n        require(tokenToOwner[_tokenId] != address(0), Errors.INVALID_TOKEN_ID);\n        _;\n    }\n\n    modifier mintingEnabled() {\n        require(isMintingEnabled, Errors.MINTING_DISABLED);\n        _;\n    }\n\n    modifier transferApproved(uint256 _tokenId) {\n        address tokenOwner = tokenToOwner[_tokenId];\n        require(\n            tokenOwner == msg.sender  || \n            tokenToApproval[_tokenId] == msg.sender || \n            ((ownerToOperators[tokenOwner][msg.sender] == true) && tokenOwner != address(0)), \n            Errors.TRANSFER_NOT_APPROVED\n        );\n        _;\n    }\n\n    modifier canOperate(uint256 _tokenId) {\n        address tokenOwner = tokenToOwner[_tokenId];\n        require(\n            tokenOwner == tx.origin || \n            ((ownerToOperators[tokenOwner][msg.sender] == true) && tokenOwner != address(0)), \n            Errors.OPERATION_NOT_APPROVED\n        );\n        _;\n    }\n\n    modifier notFrozen(uint256 _tokenId) {        \n        require(\n            (tokenIsFrozen[_tokenId] != true), \n            Errors.TOKEN_IS_FROZEN\n        );\n        _;\n    }\n\n    modifier notZeroAddress(address _addr) {\n        require(_addr != address(0), Errors.ZERO_ADDRESS);\n        _;\n    }\n\n    /*************************************************************************** */\n\n\n\n    /*************************************************************************** */\n    //                             Events: \n\n    // NFT minted\n    event Mint(uint indexed tokenId, address indexed mintedBy, address indexed mintedTo);\n     // TOKENS is deposited into the contract.\n    event Deposit(address indexed account, uint amount);\n    //TOKENS is withdrawn from the contract.\n    event Withdraw(address indexed account, uint amount);\n\n    event MintingEnabled();\n    event MintingDisabled();\n}",
  "sourcePath": "/home/arthur/dev/king-contracts/contracts/TokenERC721.sol",
  "compiler": {
    "name": "solc",
    "version": "0.8.0+commit.c7dfd78e.Emscripten.clang"
  },
  "schemaVersion": "3.4.13",
  "updatedAt": "2023-03-25T22:06:49.470Z",
  "networkType": "ethereum",
  "devdoc": {
    "kind": "dev",
    "methods": {},
    "version": 1
  },
  "userdoc": {
    "kind": "user",
    "methods": {},
    "version": 1
  }
}